{
  "address": "0xaf3c935aff132a1c7df00c3503B993f9Ff4b7879",
  "abi": [
    {
      "inputs": [],
      "stateMutability": "nonpayable",
      "type": "constructor"
    },
    {
      "anonymous": false,
      "inputs": [
        {
          "indexed": true,
          "internalType": "address",
          "name": "poolAddress",
          "type": "address"
        },
        {
          "indexed": false,
          "internalType": "uint256",
          "name": "totalReturn",
          "type": "uint256"
        }
      ],
      "name": "PrincipalAndYieldReturned",
      "type": "event"
    },
    {
      "anonymous": false,
      "inputs": [
        {
          "indexed": true,
          "internalType": "address",
          "name": "poolAddress",
          "type": "address"
        },
        {
          "indexed": false,
          "internalType": "uint256",
          "name": "amount",
          "type": "uint256"
        }
      ],
      "name": "PrincipalDeposited",
      "type": "event"
    },
    {
      "anonymous": false,
      "inputs": [
        {
          "indexed": true,
          "internalType": "address",
          "name": "poolAddress",
          "type": "address"
        },
        {
          "indexed": false,
          "internalType": "uint256",
          "name": "yieldAmount",
          "type": "uint256"
        }
      ],
      "name": "YieldSet",
      "type": "event"
    },
    {
      "inputs": [
        {
          "internalType": "address",
          "name": "_poolAddress",
          "type": "address"
        }
      ],
      "name": "authorizePool",
      "outputs": [],
      "stateMutability": "nonpayable",
      "type": "function"
    },
    {
      "inputs": [
        {
          "internalType": "address",
          "name": "",
          "type": "address"
        }
      ],
      "name": "authorizedPools",
      "outputs": [
        {
          "internalType": "bool",
          "name": "",
          "type": "bool"
        }
      ],
      "stateMutability": "view",
      "type": "function"
    },
    {
      "inputs": [
        {
          "internalType": "address",
          "name": "_poolAddress",
          "type": "address"
        },
        {
          "internalType": "uint256",
          "name": "_amount",
          "type": "uint256"
        }
      ],
      "name": "depositPrincipal",
      "outputs": [],
      "stateMutability": "payable",
      "type": "function"
    },
    {
      "inputs": [],
      "name": "owner",
      "outputs": [
        {
          "internalType": "address",
          "name": "",
          "type": "address"
        }
      ],
      "stateMutability": "view",
      "type": "function"
    },
    {
      "inputs": [
        {
          "internalType": "address",
          "name": "",
          "type": "address"
        }
      ],
      "name": "poolYields",
      "outputs": [
        {
          "internalType": "uint256",
          "name": "",
          "type": "uint256"
        }
      ],
      "stateMutability": "view",
      "type": "function"
    },
    {
      "inputs": [
        {
          "internalType": "address",
          "name": "_poolAddress",
          "type": "address"
        },
        {
          "internalType": "uint256",
          "name": "_totalAmount",
          "type": "uint256"
        }
      ],
      "name": "returnPrincipalAndYield",
      "outputs": [],
      "stateMutability": "nonpayable",
      "type": "function"
    },
    {
      "inputs": [
        {
          "internalType": "address",
          "name": "_poolAddress",
          "type": "address"
        },
        {
          "internalType": "uint256",
          "name": "_yieldAmount",
          "type": "uint256"
        }
      ],
      "name": "setPoolYield",
      "outputs": [],
      "stateMutability": "nonpayable",
      "type": "function"
    }
  ],
  "transactionHash": "0xf6706927bfdabd92e2c795ebff3dc03e57b549e59480bf11911cbaeb64b7c087",
  "args": [],
  "numDeployments": 2,
  "solcInputHash": "e92e83b8c5bec823e7bbea00a8738437",
  "bytecode": "0x608060405234801561001057600080fd5b50600080546001600160a01b03191633179055610560806100326000396000f3fe6080604052600436106100705760003560e01c80633059b7c61161004e5780633059b7c6146100ca5780638da5cb5b146100ea578063d3bf3b6a14610127578063e816b3931461016257600080fd5b806314e7d02f1461007557806315ebf74a1461009757806324f2c463146100b7575b600080fd5b34801561008157600080fd5b50610095610090366004610498565b6101a2565b005b3480156100a357600080fd5b506100956100b2366004610498565b610248565b6100956100c5366004610498565b61037b565b3480156100d657600080fd5b506100956100e53660046104c2565b610405565b3480156100f657600080fd5b5060005461010a906001600160a01b031681565b6040516001600160a01b0390911681526020015b60405180910390f35b34801561013357600080fd5b506101546101423660046104c2565b60026020526000908152604090205481565b60405190815260200161011e565b34801561016e57600080fd5b5061019261017d3660046104c2565b60016020526000908152604090205460ff1681565b604051901515815260200161011e565b6000546001600160a01b03163314806101ca57503360009081526001602052604090205460ff165b6101ef5760405162461bcd60e51b81526004016101e6906104e4565b60405180910390fd5b6001600160a01b03821660008181526002602052604090819020839055517fb3847545cfbda9546c0b8d2ee7398cdbced26db8b2429085b544b114045b560e9061023c9084815260200190565b60405180910390a25050565b6000546001600160a01b031633148061027057503360009081526001602052604090205460ff165b61028c5760405162461bcd60e51b81526004016101e6906104e4565b6000826001600160a01b03168260405160006040518083038185875af1925050503d80600081146102d9576040519150601f19603f3d011682016040523d82523d6000602084013e6102de565b606091505b50509050806103215760405162461bcd60e51b815260206004820152600f60248201526e151c985b9cd9995c8819985a5b1959608a1b60448201526064016101e6565b6001600160a01b03831660008181526002602052604080822091909155517fe30f8d8307e55749fb18b864590a2f3355e3eaee82aa07814f131cea125c33779061036e9085815260200190565b60405180910390a2505050565b8034146103ca5760405162461bcd60e51b815260206004820152601760248201527f4465706f73697420616d6f756e74206d69736d6174636800000000000000000060448201526064016101e6565b816001600160a01b03167f2d61cf17bab18b04495576cf3d5490afd6c0c573d79b7ce84a50fb523abb3daf8260405161023c91815260200190565b6000546001600160a01b031633146104555760405162461bcd60e51b815260206004820152601360248201527213db9b1e481bdddb995c8818d85b8818d85b1b606a1b60448201526064016101e6565b6001600160a01b03166000908152600160208190526040909120805460ff19169091179055565b80356001600160a01b038116811461049357600080fd5b919050565b600080604083850312156104ab57600080fd5b6104b48361047c565b946020939093013593505050565b6000602082840312156104d457600080fd5b6104dd8261047c565b9392505050565b60208082526026908201527f4f6e6c79206f776e6572206f7220617574686f72697a656420706f6f6c2063616040820152651b8818d85b1b60d21b60608201526080019056fea2646970667358221220b8bbc1694793fd81f11dc831de695386d91100482724b2680f082e08328f589564736f6c63430008140033",
  "devdoc": {
    "details": "Simulates a DeFi protocol (like Aave or Lido) where the principal is deposited to earn yield. For demo purposes, the yield amount is manually set by the deployer or the contract owner when settling the pool.",
    "kind": "dev",
    "methods": {
      "authorizePool(address)": {
        "details": "Authorize a pool contract to call yield functions"
      },
      "depositPrincipal(address,uint256)": {
        "details": "Simulates the action of sending the pool's principal to a DeFi protocol.",
        "params": {
          "_amount": "The principal amount (Sponsor + Participants deposits).",
          "_poolAddress": "The address of the betting pool contract."
        }
      },
      "returnPrincipalAndYield(address,uint256)": {
        "details": "Returns the total funds (Principal + Yield) back to the Pool for distribution.",
        "params": {
          "_poolAddress": "The address of the betting pool contract.",
          "_totalAmount": "The total principal + yield to be returned."
        }
      },
      "setPoolYield(address,uint256)": {
        "details": "Sets the simulated yield generated by the principal (called by the owner or pool)."
      }
    },
    "title": "MockYieldProvider",
    "version": 1
  },
  "userdoc": {
    "kind": "user",
    "methods": {},
    "version": 1
  },
  "storageLayout": {
    "storage": [
      {
        "astId": 182,
        "contract": "contracts/MockYieldProvider.sol:MockYieldProvider",
        "label": "owner",
        "offset": 0,
        "slot": "0",
        "type": "t_address"
      },
      {
        "astId": 186,
        "contract": "contracts/MockYieldProvider.sol:MockYieldProvider",
        "label": "authorizedPools",
        "offset": 0,
        "slot": "1",
        "type": "t_mapping(t_address,t_bool)"
      },
      {
        "astId": 190,
        "contract": "contracts/MockYieldProvider.sol:MockYieldProvider",
        "label": "poolYields",
        "offset": 0,
        "slot": "2",
        "type": "t_mapping(t_address,t_uint256)"
      }
    ],
    "types": {
      "t_address": {
        "encoding": "inplace",
        "label": "address",
        "numberOfBytes": "20"
      },
      "t_bool": {
        "encoding": "inplace",
        "label": "bool",
        "numberOfBytes": "1"
      },
      "t_mapping(t_address,t_bool)": {
        "encoding": "mapping",
        "key": "t_address",
        "label": "mapping(address => bool)",
        "numberOfBytes": "32",
        "value": "t_bool"
      },
      "t_mapping(t_address,t_uint256)": {
        "encoding": "mapping",
        "key": "t_address",
        "label": "mapping(address => uint256)",
        "numberOfBytes": "32",
        "value": "t_uint256"
      },
      "t_uint256": {
        "encoding": "inplace",
        "label": "uint256",
        "numberOfBytes": "32"
      }
    }
  }
}