{
  "address": "0xF7Ddcf8BA4816304D1C6B231b56B4A91Be101efc",
  "abi": [
    {
      "inputs": [
        {
          "internalType": "address",
          "name": "_yieldProviderAddress",
          "type": "address"
        }
      ],
      "stateMutability": "nonpayable",
      "type": "constructor"
    },
    {
      "inputs": [
        {
          "internalType": "address",
          "name": "owner",
          "type": "address"
        }
      ],
      "name": "OwnableInvalidOwner",
      "type": "error"
    },
    {
      "inputs": [
        {
          "internalType": "address",
          "name": "account",
          "type": "address"
        }
      ],
      "name": "OwnableUnauthorizedAccount",
      "type": "error"
    },
    {
      "anonymous": false,
      "inputs": [
        {
          "indexed": true,
          "internalType": "uint256",
          "name": "poolId",
          "type": "uint256"
        },
        {
          "indexed": true,
          "internalType": "address",
          "name": "user",
          "type": "address"
        },
        {
          "indexed": false,
          "internalType": "uint256",
          "name": "amountClaimed",
          "type": "uint256"
        }
      ],
      "name": "FundsClaimed",
      "type": "event"
    },
    {
      "anonymous": false,
      "inputs": [
        {
          "indexed": true,
          "internalType": "uint256",
          "name": "poolId",
          "type": "uint256"
        },
        {
          "indexed": true,
          "internalType": "address",
          "name": "user",
          "type": "address"
        },
        {
          "indexed": false,
          "internalType": "uint8",
          "name": "outcomeId",
          "type": "uint8"
        },
        {
          "indexed": false,
          "internalType": "uint256",
          "name": "deposit",
          "type": "uint256"
        }
      ],
      "name": "JoinedPool",
      "type": "event"
    },
    {
      "anonymous": false,
      "inputs": [
        {
          "indexed": true,
          "internalType": "address",
          "name": "previousOwner",
          "type": "address"
        },
        {
          "indexed": true,
          "internalType": "address",
          "name": "newOwner",
          "type": "address"
        }
      ],
      "name": "OwnershipTransferred",
      "type": "event"
    },
    {
      "anonymous": false,
      "inputs": [
        {
          "indexed": true,
          "internalType": "uint256",
          "name": "poolId",
          "type": "uint256"
        },
        {
          "indexed": true,
          "internalType": "address",
          "name": "sponsor",
          "type": "address"
        },
        {
          "indexed": false,
          "internalType": "string",
          "name": "question",
          "type": "string"
        }
      ],
      "name": "PoolCreated",
      "type": "event"
    },
    {
      "anonymous": false,
      "inputs": [
        {
          "indexed": true,
          "internalType": "uint256",
          "name": "poolId",
          "type": "uint256"
        },
        {
          "indexed": false,
          "internalType": "uint8",
          "name": "winningOutcomeId",
          "type": "uint8"
        },
        {
          "indexed": false,
          "internalType": "uint256",
          "name": "totalYield",
          "type": "uint256"
        }
      ],
      "name": "PoolSettled",
      "type": "event"
    },
    {
      "inputs": [],
      "name": "SPONSOR_YIELD_CUT_PERCENT",
      "outputs": [
        {
          "internalType": "uint256",
          "name": "",
          "type": "uint256"
        }
      ],
      "stateMutability": "view",
      "type": "function"
    },
    {
      "inputs": [],
      "name": "TICKET_FEE",
      "outputs": [
        {
          "internalType": "uint256",
          "name": "",
          "type": "uint256"
        }
      ],
      "stateMutability": "view",
      "type": "function"
    },
    {
      "inputs": [
        {
          "internalType": "uint256",
          "name": "_poolId",
          "type": "uint256"
        }
      ],
      "name": "claimFunds",
      "outputs": [],
      "stateMutability": "nonpayable",
      "type": "function"
    },
    {
      "inputs": [
        {
          "internalType": "string",
          "name": "_question",
          "type": "string"
        },
        {
          "internalType": "uint256",
          "name": "_bettingDuration",
          "type": "uint256"
        }
      ],
      "name": "createPool",
      "outputs": [],
      "stateMutability": "payable",
      "type": "function"
    },
    {
      "inputs": [
        {
          "internalType": "uint256",
          "name": "_poolId",
          "type": "uint256"
        },
        {
          "internalType": "uint8",
          "name": "_outcomeId",
          "type": "uint8"
        }
      ],
      "name": "getOutcomeTicketCount",
      "outputs": [
        {
          "internalType": "uint256",
          "name": "",
          "type": "uint256"
        }
      ],
      "stateMutability": "view",
      "type": "function"
    },
    {
      "inputs": [
        {
          "internalType": "uint256",
          "name": "_poolId",
          "type": "uint256"
        }
      ],
      "name": "getPoolDetails",
      "outputs": [
        {
          "internalType": "uint256",
          "name": "poolId",
          "type": "uint256"
        },
        {
          "internalType": "string",
          "name": "question",
          "type": "string"
        },
        {
          "internalType": "address",
          "name": "sponsor",
          "type": "address"
        },
        {
          "internalType": "uint256",
          "name": "sponsorDeposit",
          "type": "uint256"
        },
        {
          "internalType": "uint256",
          "name": "participantCount",
          "type": "uint256"
        },
        {
          "internalType": "uint256",
          "name": "totalPrincipal",
          "type": "uint256"
        },
        {
          "internalType": "uint256",
          "name": "bettingEndTime",
          "type": "uint256"
        },
        {
          "internalType": "bool",
          "name": "settled",
          "type": "bool"
        },
        {
          "internalType": "uint8",
          "name": "winningOutcomeId",
          "type": "uint8"
        },
        {
          "internalType": "uint256",
          "name": "totalYield",
          "type": "uint256"
        }
      ],
      "stateMutability": "view",
      "type": "function"
    },
    {
      "inputs": [
        {
          "internalType": "uint256",
          "name": "_poolId",
          "type": "uint256"
        },
        {
          "internalType": "address",
          "name": "_user",
          "type": "address"
        }
      ],
      "name": "getUserBet",
      "outputs": [
        {
          "internalType": "uint8",
          "name": "",
          "type": "uint8"
        }
      ],
      "stateMutability": "view",
      "type": "function"
    },
    {
      "inputs": [
        {
          "internalType": "uint256",
          "name": "_poolId",
          "type": "uint256"
        },
        {
          "internalType": "address",
          "name": "_user",
          "type": "address"
        }
      ],
      "name": "hasUserClaimed",
      "outputs": [
        {
          "internalType": "bool",
          "name": "",
          "type": "bool"
        }
      ],
      "stateMutability": "view",
      "type": "function"
    },
    {
      "inputs": [
        {
          "internalType": "uint256",
          "name": "_poolId",
          "type": "uint256"
        },
        {
          "internalType": "uint8",
          "name": "_outcomeId",
          "type": "uint8"
        }
      ],
      "name": "joinPool",
      "outputs": [],
      "stateMutability": "payable",
      "type": "function"
    },
    {
      "inputs": [],
      "name": "nextPoolId",
      "outputs": [
        {
          "internalType": "uint256",
          "name": "",
          "type": "uint256"
        }
      ],
      "stateMutability": "view",
      "type": "function"
    },
    {
      "inputs": [],
      "name": "owner",
      "outputs": [
        {
          "internalType": "address",
          "name": "",
          "type": "address"
        }
      ],
      "stateMutability": "view",
      "type": "function"
    },
    {
      "inputs": [
        {
          "internalType": "uint256",
          "name": "",
          "type": "uint256"
        }
      ],
      "name": "pools",
      "outputs": [
        {
          "internalType": "uint256",
          "name": "poolId",
          "type": "uint256"
        },
        {
          "internalType": "string",
          "name": "question",
          "type": "string"
        },
        {
          "internalType": "address",
          "name": "sponsor",
          "type": "address"
        },
        {
          "internalType": "uint256",
          "name": "sponsorDeposit",
          "type": "uint256"
        },
        {
          "internalType": "uint256",
          "name": "participantCount",
          "type": "uint256"
        },
        {
          "internalType": "uint256",
          "name": "totalPrincipal",
          "type": "uint256"
        },
        {
          "internalType": "uint256",
          "name": "bettingEndTime",
          "type": "uint256"
        },
        {
          "internalType": "bool",
          "name": "isSettled",
          "type": "bool"
        },
        {
          "internalType": "uint8",
          "name": "winningOutcomeId",
          "type": "uint8"
        },
        {
          "internalType": "uint256",
          "name": "totalYield",
          "type": "uint256"
        }
      ],
      "stateMutability": "view",
      "type": "function"
    },
    {
      "inputs": [],
      "name": "renounceOwnership",
      "outputs": [],
      "stateMutability": "nonpayable",
      "type": "function"
    },
    {
      "inputs": [
        {
          "internalType": "uint256",
          "name": "_poolId",
          "type": "uint256"
        },
        {
          "internalType": "uint8",
          "name": "_winningOutcomeId",
          "type": "uint8"
        },
        {
          "internalType": "uint256",
          "name": "_simulatedYield",
          "type": "uint256"
        }
      ],
      "name": "settlePool",
      "outputs": [],
      "stateMutability": "nonpayable",
      "type": "function"
    },
    {
      "inputs": [
        {
          "internalType": "address",
          "name": "newOwner",
          "type": "address"
        }
      ],
      "name": "transferOwnership",
      "outputs": [],
      "stateMutability": "nonpayable",
      "type": "function"
    },
    {
      "inputs": [],
      "name": "yieldProvider",
      "outputs": [
        {
          "internalType": "contract MockYieldProvider",
          "name": "",
          "type": "address"
        }
      ],
      "stateMutability": "view",
      "type": "function"
    }
  ],
  "transactionHash": "0x7053aa5057ff2c52cf15bdb91ad4660a781e8c19505963e4134cc1acb31c01ce",
  "args": [
    "0x0d32eAcd7b4595F14C3180B0beb1a8aF4AF583fF"
  ],
  "numDeployments": 1,
  "solcInputHash": "cd51e8665041b0eafe99912c9545a40a",
  "bytecode": "0x60a06040526001805534801561001457600080fd5b50604051611787380380611787833981016040819052610033916100c4565b338061005957604051631e4fbdf760e01b81526000600482015260240160405180910390fd5b61006281610074565b506001600160a01b03166080526100f4565b600080546001600160a01b038381166001600160a01b0319831681178455604051919092169283917f8be0079c531659141344cd1fd0a4f28419497f9722a3daafe3b4186f6b6457e09190a35050565b6000602082840312156100d657600080fd5b81516001600160a01b03811681146100ed57600080fd5b9392505050565b60805161165c61012b600039600081816102640152818161086b01528181610b4201528181610fa30152611038015261165c6000f3fe6080604052600436106100f35760003560e01c80638da5cb5b1161008a578063b8764c3911610059578063b8764c39146102bc578063b91fb664146102dc578063c03fb87c146102fc578063f2fde38b1461035857600080fd5b80638da5cb5b14610204578063a53773ef14610236578063a82250a814610252578063ac4afa381461028657600080fd5b806326fc66ab116100c657806326fc66ab14610188578063337317e61461019b578063413159cc146101ae578063715018a6146101ef57600080fd5b806306d94eda146100f857806307c7a72d1461012057806318e56131146101505780631b55e33814610166575b600080fd5b34801561010457600080fd5b5061010d602881565b6040519081526020015b60405180910390f35b34801561012c57600080fd5b5061014061013b3660046111ba565b610378565b6040519015158152602001610117565b34801561015c57600080fd5b5061010d60015481565b34801561017257600080fd5b506101866101813660046111e6565b6103a8565b005b610186610196366004611215565b61076c565b6101866101a93660046112db565b610931565b3480156101ba57600080fd5b5061010d6101c93660046112db565b600082815260026020908152604080832060ff8516845260060190915290205492915050565b3480156101fb57600080fd5b50610186610bf4565b34801561021057600080fd5b506000546001600160a01b03165b6040516001600160a01b039091168152602001610117565b34801561024257600080fd5b5061010d67016345785d8a000081565b34801561025e57600080fd5b5061021e7f000000000000000000000000000000000000000000000000000000000000000081565b34801561029257600080fd5b506102a66102a13660046111e6565b610c08565b6040516101179a99989796959493929190611344565b3480156102c857600080fd5b506102a66102d73660046111e6565b610cf0565b3480156102e857600080fd5b506101866102f73660046113ae565b610e10565b34801561030857600080fd5b506103466103173660046111ba565b60008281526002602090815260408083206001600160a01b038516845260070190915290205460ff1692915050565b60405160ff9091168152602001610117565b34801561036457600080fd5b506101866103733660046113e3565b6110e3565b60008281526002602090815260408083206001600160a01b038516845260080190915290205460ff165b92915050565b6000818152600260205260409020600a0154819060ff166104105760405162461bcd60e51b815260206004820152601760248201527f506f6f6c206973206e6f742079657420736574746c656400000000000000000060448201526064015b60405180910390fd5b60008281526002602081905260408220908101549091906001600160a01b031633036104ee5733600090815260088301602052604090205460ff16156104985760405162461bcd60e51b815260206004820152601b60248201527f53706f6e736f722068617320616c726561647920636c61696d656400000000006044820152606401610407565b60006064602884600b01546104ad919061141b565b6104b79190611432565b90508083600301546104c99190611454565b3360009081526008850160205260409020805460ff1916600117905591506106a09050565b33600090815260078301602052604090205460ff16156106325733600090815260088301602052604090205460ff161561056a5760405162461bcd60e51b815260206004820152601f60248201527f5061727469636970616e742068617320616c726561647920636c61696d6564006044820152606401610407565b50600a81015433600090815260078301602052604090205467016345785d8a00009160ff61010090910481169116036106115760006064602884600b01546105b2919061141b565b6105bc9190611432565b83600b01546105cb9190611467565b600a840154610100900460ff166000908152600685016020526040902054909150801561060e5760006105fe8284611432565b905061060a8185611454565b9350505b50505b3360009081526008830160205260409020805460ff191660011790556106a0565b60405162461bcd60e51b815260206004820152603760248201527f41646472657373206973206e6569746865722073706f6e736f72206e6f72207060448201527f61727469636970616e7420696e207468697320706f6f6c0000000000000000006064820152608401610407565b604051600090339083908381818185875af1925050503d80600081146106e2576040519150601f19603f3d011682016040523d82523d6000602084013e6106e7565b606091505b505090508061072e5760405162461bcd60e51b8152602060048201526013602482015272115512081d1c985b9cd9995c8819985a5b1959606a1b6044820152606401610407565b604051828152339086907fa4eb50103b0591feb0bc913f479d92af5eb7ea33e8c397b49bab52ce6af26cb59060200160405180910390a35050505050565b6001546000818152600260205260409020600a015460ff16156107a15760405162461bcd60e51b81526004016104079061147a565b34806107fb5760405162461bcd60e51b8152602060048201526024808201527f53706f6e736f72206d757374206465706f73697420696e697469616c206361706044820152631a5d185b60e21b6064820152608401610407565b60018054600081815260026020526040902090815590810161081d868261153a565b506002810180546001600160a01b03191633179055600381018290556005810182905561084a8442611454565b60098201556040516324f2c46360e01b8152306004820152602481018390527f00000000000000000000000000000000000000000000000000000000000000006001600160a01b0316906324f2c4639084906044016000604051808303818588803b1580156108b857600080fd5b505af11580156108cc573d6000803e3d6000fd5b5050505050336001600160a01b03166001547fb22862363d492c0c7b9bcbfe63bcfbc715494dafb3b41d198d4bfcefea8a7c038760405161090d91906115fa565b60405180910390a3600180549060006109258361160d565b91905055505050505050565b600082815260026020526040902060090154829042106109935760405162461bcd60e51b815260206004820152601860248201527f42657474696e6720706572696f642068617320656e64656400000000000000006044820152606401610407565b6000818152600260205260409020600a015460ff16156109c55760405162461bcd60e51b81526004016104079061147a565b60008381526002602052604090203467016345785d8a000014610a2a5760405162461bcd60e51b815260206004820152601f60248201527f4d757374207061792065786163746c7920746865205449434b45545f464545006044820152606401610407565b33600090815260078201602052604090205460ff1615610a9b5760405162461bcd60e51b815260206004820152602660248201527f5573657220616c72656164792070617274696369706174656420696e207468696044820152651cc81c1bdbdb60d21b6064820152608401610407565b3360009081526007820160209081526040808320805460ff191660ff8816908117909155835260068401909152902054610ad6906001611454565b60ff841660009081526006830160205260409020556004810154610afb906001611454565b60048201556005810154610b189067016345785d8a000090611454565b60058201556040516324f2c46360e01b815230600482015267016345785d8a0000602482018190527f00000000000000000000000000000000000000000000000000000000000000006001600160a01b0316916324f2c46391906044016000604051808303818588803b158015610b8e57600080fd5b505af1158015610ba2573d6000803e3d6000fd5b50506040805160ff8816815267016345785d8a000060208201523394508893507f59eca04e8d2a3cbc9bbd8fcfdda36278bea857fbf34bb881729b7671114e4e0192500160405180910390a350505050565b610bfc611121565b610c06600061114e565b565b60026020526000908152604090208054600182018054919291610c2a906114b1565b80601f0160208091040260200160405190810160405280929190818152602001828054610c56906114b1565b8015610ca35780601f10610c7857610100808354040283529160200191610ca3565b820191906000526020600020905b815481529060010190602001808311610c8657829003601f168201915b5050505060028301546003840154600485015460058601546009870154600a880154600b9098015496976001600160a01b03909516969395509193909260ff80831692610100900416908a565b600081815260026020819052604082208054918101546003820154600483015460058401546009850154600a860154600b87015460018801805460609a8c9a8b9a8b9a8b9a8b9a8b9a8b9a8b9a969997986001600160a01b0390961696949593949293919260ff8083169361010090930416918990610d6e906114b1565b80601f0160208091040260200160405190810160405280929190818152602001828054610d9a906114b1565b8015610de75780601f10610dbc57610100808354040283529160200191610de7565b820191906000526020600020905b815481529060010190602001808311610dca57829003601f168201915b505050505098509a509a509a509a509a509a509a509a509a509a50509193959799509193959799565b6000838152600260208190526040909120015483906001600160a01b03163314610e7c5760405162461bcd60e51b815260206004820152601a60248201527f43616c6c6572206d757374206265207468652073706f6e736f720000000000006044820152606401610407565b6000848152600260205260409020600a0154849060ff1615610eb05760405162461bcd60e51b81526004016104079061147a565b60008581526002602052604090206009810154421015610f125760405162461bcd60e51b815260206004820152601e60248201527f42657474696e6720706572696f64206973206e6f74206f7665722079657400006044820152606401610407565b60008560ff1611610f655760405162461bcd60e51b815260206004820152601d60248201527f57696e6e696e67206f7574636f6d65206d7573742062652076616c69640000006044820152606401610407565b600a81018054600161ffff1990911661010060ff89160217179055600b81018490556040516314e7d02f60e01b8152306004820152602481018590527f00000000000000000000000000000000000000000000000000000000000000006001600160a01b0316906314e7d02f90604401600060405180830381600087803b158015610fef57600080fd5b505af1158015611003573d6000803e3d6000fd5b5050505060008482600501546110199190611454565b604051630af5fba560e11b8152306004820152602481018290529091507f00000000000000000000000000000000000000000000000000000000000000006001600160a01b0316906315ebf74a90604401600060405180830381600087803b15801561108457600080fd5b505af1158015611098573d6000803e3d6000fd5b50506040805160ff8a168152602081018990528a93507fb972376f8b9cffe93a819d775f0ca473e152f964b557c83a120de0766e19e89b92500160405180910390a250505050505050565b6110eb611121565b6001600160a01b03811661111557604051631e4fbdf760e01b815260006004820152602401610407565b61111e8161114e565b50565b6000546001600160a01b03163314610c065760405163118cdaa760e01b8152336004820152602401610407565b600080546001600160a01b038381166001600160a01b0319831681178455604051919092169283917f8be0079c531659141344cd1fd0a4f28419497f9722a3daafe3b4186f6b6457e09190a35050565b80356001600160a01b03811681146111b557600080fd5b919050565b600080604083850312156111cd57600080fd5b823591506111dd6020840161119e565b90509250929050565b6000602082840312156111f857600080fd5b5035919050565b634e487b7160e01b600052604160045260246000fd5b6000806040838503121561122857600080fd5b823567ffffffffffffffff8082111561124057600080fd5b818501915085601f83011261125457600080fd5b813581811115611266576112666111ff565b604051601f8201601f19908116603f0116810190838211818310171561128e5761128e6111ff565b816040528281528860208487010111156112a757600080fd5b826020860160208301376000602093820184015298969091013596505050505050565b803560ff811681146111b557600080fd5b600080604083850312156112ee57600080fd5b823591506111dd602084016112ca565b6000815180845260005b8181101561132457602081850181015186830182015201611308565b506000602082860101526020601f19601f83011685010191505092915050565b60006101408c835280602084015261135e8184018d6112fe565b6001600160a01b039b909b16604084015250506060810197909752608087019590955260a086019390935260c0850191909152151560e084015260ff166101008301526101209091015292915050565b6000806000606084860312156113c357600080fd5b833592506113d3602085016112ca565b9150604084013590509250925092565b6000602082840312156113f557600080fd5b6113fe8261119e565b9392505050565b634e487b7160e01b600052601160045260246000fd5b80820281158282048414176103a2576103a2611405565b60008261144f57634e487b7160e01b600052601260045260246000fd5b500490565b808201808211156103a2576103a2611405565b818103818111156103a2576103a2611405565b60208082526017908201527f506f6f6c20697320616c726561647920736574746c6564000000000000000000604082015260600190565b600181811c908216806114c557607f821691505b6020821081036114e557634e487b7160e01b600052602260045260246000fd5b50919050565b601f82111561153557600081815260208120601f850160051c810160208610156115125750805b601f850160051c820191505b818110156115315782815560010161151e565b5050505b505050565b815167ffffffffffffffff811115611554576115546111ff565b6115688161156284546114b1565b846114eb565b602080601f83116001811461159d57600084156115855750858301515b600019600386901b1c1916600185901b178555611531565b600085815260208120601f198616915b828110156115cc578886015182559484019460019091019084016115ad565b50858210156115ea5787850151600019600388901b60f8161c191681555b5050505050600190811b01905550565b6020815260006113fe60208301846112fe565b60006001820161161f5761161f611405565b506001019056fea2646970667358221220e64513ad36cfa56fc5719696d93c957cdb30a76f9aa56b62bef5dd4b11cc7a2564736f6c63430008140033",
  "devdoc": {
    "details": "A prediction market where user principal is returned regardless of the outcome. The prize pool is funded entirely by yield generated from DeFi lending.",
    "errors": {
      "OwnableInvalidOwner(address)": [
        {
          "details": "The owner is not a valid owner account. (eg. `address(0)`)"
        }
      ],
      "OwnableUnauthorizedAccount(address)": [
        {
          "details": "The caller account is not authorized to perform an operation."
        }
      ]
    },
    "kind": "dev",
    "methods": {
      "getOutcomeTicketCount(uint256,uint8)": {
        "details": "Get outcome ticket count for a pool"
      },
      "getPoolDetails(uint256)": {
        "details": "Returns pool details. Note: This is a simplified version. For full details, you may need separate getter functions for mappings."
      },
      "getUserBet(uint256,address)": {
        "details": "Get user's bet for a specific pool"
      },
      "hasUserClaimed(uint256,address)": {
        "details": "Check if user has claimed for a pool"
      },
      "owner()": {
        "details": "Returns the address of the current owner."
      },
      "renounceOwnership()": {
        "details": "Leaves the contract without owner. It will not be possible to call `onlyOwner` functions. Can only be called by the current owner. NOTE: Renouncing ownership will leave the contract without an owner, thereby disabling any functionality that is only available to the owner."
      },
      "transferOwnership(address)": {
        "details": "Transfers ownership of the contract to a new account (`newOwner`). Can only be called by the current owner."
      }
    },
    "title": "NoLossPredictionPool",
    "version": 1
  },
  "userdoc": {
    "kind": "user",
    "methods": {},
    "version": 1
  },
  "storageLayout": {
    "storage": [
      {
        "astId": 8,
        "contract": "contracts/NoLossPredictionPool.sol:NoLossPredictionPool",
        "label": "_owner",
        "offset": 0,
        "slot": "0",
        "type": "t_address"
      },
      {
        "astId": 360,
        "contract": "contracts/NoLossPredictionPool.sol:NoLossPredictionPool",
        "label": "nextPoolId",
        "offset": 0,
        "slot": "1",
        "type": "t_uint256"
      },
      {
        "astId": 365,
        "contract": "contracts/NoLossPredictionPool.sol:NoLossPredictionPool",
        "label": "pools",
        "offset": 0,
        "slot": "2",
        "type": "t_mapping(t_uint256,t_struct(Pool)357_storage)"
      }
    ],
    "types": {
      "t_address": {
        "encoding": "inplace",
        "label": "address",
        "numberOfBytes": "20"
      },
      "t_bool": {
        "encoding": "inplace",
        "label": "bool",
        "numberOfBytes": "1"
      },
      "t_mapping(t_address,t_bool)": {
        "encoding": "mapping",
        "key": "t_address",
        "label": "mapping(address => bool)",
        "numberOfBytes": "32",
        "value": "t_bool"
      },
      "t_mapping(t_address,t_uint8)": {
        "encoding": "mapping",
        "key": "t_address",
        "label": "mapping(address => uint8)",
        "numberOfBytes": "32",
        "value": "t_uint8"
      },
      "t_mapping(t_uint256,t_struct(Pool)357_storage)": {
        "encoding": "mapping",
        "key": "t_uint256",
        "label": "mapping(uint256 => struct NoLossPredictionPool.Pool)",
        "numberOfBytes": "32",
        "value": "t_struct(Pool)357_storage"
      },
      "t_mapping(t_uint8,t_uint256)": {
        "encoding": "mapping",
        "key": "t_uint8",
        "label": "mapping(uint8 => uint256)",
        "numberOfBytes": "32",
        "value": "t_uint256"
      },
      "t_string_storage": {
        "encoding": "bytes",
        "label": "string",
        "numberOfBytes": "32"
      },
      "t_struct(Pool)357_storage": {
        "encoding": "inplace",
        "label": "struct NoLossPredictionPool.Pool",
        "members": [
          {
            "astId": 326,
            "contract": "contracts/NoLossPredictionPool.sol:NoLossPredictionPool",
            "label": "poolId",
            "offset": 0,
            "slot": "0",
            "type": "t_uint256"
          },
          {
            "astId": 328,
            "contract": "contracts/NoLossPredictionPool.sol:NoLossPredictionPool",
            "label": "question",
            "offset": 0,
            "slot": "1",
            "type": "t_string_storage"
          },
          {
            "astId": 330,
            "contract": "contracts/NoLossPredictionPool.sol:NoLossPredictionPool",
            "label": "sponsor",
            "offset": 0,
            "slot": "2",
            "type": "t_address"
          },
          {
            "astId": 332,
            "contract": "contracts/NoLossPredictionPool.sol:NoLossPredictionPool",
            "label": "sponsorDeposit",
            "offset": 0,
            "slot": "3",
            "type": "t_uint256"
          },
          {
            "astId": 334,
            "contract": "contracts/NoLossPredictionPool.sol:NoLossPredictionPool",
            "label": "participantCount",
            "offset": 0,
            "slot": "4",
            "type": "t_uint256"
          },
          {
            "astId": 336,
            "contract": "contracts/NoLossPredictionPool.sol:NoLossPredictionPool",
            "label": "totalPrincipal",
            "offset": 0,
            "slot": "5",
            "type": "t_uint256"
          },
          {
            "astId": 340,
            "contract": "contracts/NoLossPredictionPool.sol:NoLossPredictionPool",
            "label": "outcomeTicketCount",
            "offset": 0,
            "slot": "6",
            "type": "t_mapping(t_uint8,t_uint256)"
          },
          {
            "astId": 344,
            "contract": "contracts/NoLossPredictionPool.sol:NoLossPredictionPool",
            "label": "userBet",
            "offset": 0,
            "slot": "7",
            "type": "t_mapping(t_address,t_uint8)"
          },
          {
            "astId": 348,
            "contract": "contracts/NoLossPredictionPool.sol:NoLossPredictionPool",
            "label": "hasClaimed",
            "offset": 0,
            "slot": "8",
            "type": "t_mapping(t_address,t_bool)"
          },
          {
            "astId": 350,
            "contract": "contracts/NoLossPredictionPool.sol:NoLossPredictionPool",
            "label": "bettingEndTime",
            "offset": 0,
            "slot": "9",
            "type": "t_uint256"
          },
          {
            "astId": 352,
            "contract": "contracts/NoLossPredictionPool.sol:NoLossPredictionPool",
            "label": "isSettled",
            "offset": 0,
            "slot": "10",
            "type": "t_bool"
          },
          {
            "astId": 354,
            "contract": "contracts/NoLossPredictionPool.sol:NoLossPredictionPool",
            "label": "winningOutcomeId",
            "offset": 1,
            "slot": "10",
            "type": "t_uint8"
          },
          {
            "astId": 356,
            "contract": "contracts/NoLossPredictionPool.sol:NoLossPredictionPool",
            "label": "totalYield",
            "offset": 0,
            "slot": "11",
            "type": "t_uint256"
          }
        ],
        "numberOfBytes": "384"
      },
      "t_uint256": {
        "encoding": "inplace",
        "label": "uint256",
        "numberOfBytes": "32"
      },
      "t_uint8": {
        "encoding": "inplace",
        "label": "uint8",
        "numberOfBytes": "1"
      }
    }
  }
}