{
  "address": "0x15141DDaD1B0770342e136a5554Be2C7213a7468",
  "abi": [
    {
      "inputs": [
        {
          "internalType": "address",
          "name": "_yieldProviderAddress",
          "type": "address"
        }
      ],
      "stateMutability": "nonpayable",
      "type": "constructor"
    },
    {
      "inputs": [
        {
          "internalType": "address",
          "name": "owner",
          "type": "address"
        }
      ],
      "name": "OwnableInvalidOwner",
      "type": "error"
    },
    {
      "inputs": [
        {
          "internalType": "address",
          "name": "account",
          "type": "address"
        }
      ],
      "name": "OwnableUnauthorizedAccount",
      "type": "error"
    },
    {
      "anonymous": false,
      "inputs": [
        {
          "indexed": true,
          "internalType": "uint256",
          "name": "poolId",
          "type": "uint256"
        },
        {
          "indexed": true,
          "internalType": "address",
          "name": "user",
          "type": "address"
        },
        {
          "indexed": false,
          "internalType": "uint256",
          "name": "amountClaimed",
          "type": "uint256"
        }
      ],
      "name": "FundsClaimed",
      "type": "event"
    },
    {
      "anonymous": false,
      "inputs": [
        {
          "indexed": true,
          "internalType": "uint256",
          "name": "poolId",
          "type": "uint256"
        },
        {
          "indexed": true,
          "internalType": "address",
          "name": "user",
          "type": "address"
        },
        {
          "indexed": false,
          "internalType": "uint8",
          "name": "outcomeId",
          "type": "uint8"
        },
        {
          "indexed": false,
          "internalType": "uint256",
          "name": "deposit",
          "type": "uint256"
        }
      ],
      "name": "JoinedPool",
      "type": "event"
    },
    {
      "anonymous": false,
      "inputs": [
        {
          "indexed": true,
          "internalType": "address",
          "name": "previousOwner",
          "type": "address"
        },
        {
          "indexed": true,
          "internalType": "address",
          "name": "newOwner",
          "type": "address"
        }
      ],
      "name": "OwnershipTransferred",
      "type": "event"
    },
    {
      "anonymous": false,
      "inputs": [
        {
          "indexed": true,
          "internalType": "uint256",
          "name": "poolId",
          "type": "uint256"
        },
        {
          "indexed": true,
          "internalType": "address",
          "name": "sponsor",
          "type": "address"
        },
        {
          "indexed": false,
          "internalType": "string",
          "name": "question",
          "type": "string"
        }
      ],
      "name": "PoolCreated",
      "type": "event"
    },
    {
      "anonymous": false,
      "inputs": [
        {
          "indexed": true,
          "internalType": "uint256",
          "name": "poolId",
          "type": "uint256"
        },
        {
          "indexed": false,
          "internalType": "uint8",
          "name": "winningOutcomeId",
          "type": "uint8"
        },
        {
          "indexed": false,
          "internalType": "uint256",
          "name": "totalYield",
          "type": "uint256"
        }
      ],
      "name": "PoolSettled",
      "type": "event"
    },
    {
      "inputs": [],
      "name": "SPONSOR_YIELD_CUT_PERCENT",
      "outputs": [
        {
          "internalType": "uint256",
          "name": "",
          "type": "uint256"
        }
      ],
      "stateMutability": "view",
      "type": "function"
    },
    {
      "inputs": [],
      "name": "TICKET_FEE",
      "outputs": [
        {
          "internalType": "uint256",
          "name": "",
          "type": "uint256"
        }
      ],
      "stateMutability": "view",
      "type": "function"
    },
    {
      "inputs": [
        {
          "internalType": "uint256",
          "name": "_poolId",
          "type": "uint256"
        }
      ],
      "name": "claimFunds",
      "outputs": [],
      "stateMutability": "nonpayable",
      "type": "function"
    },
    {
      "inputs": [
        {
          "internalType": "string",
          "name": "_question",
          "type": "string"
        },
        {
          "internalType": "uint256",
          "name": "_bettingDuration",
          "type": "uint256"
        }
      ],
      "name": "createPool",
      "outputs": [],
      "stateMutability": "payable",
      "type": "function"
    },
    {
      "inputs": [
        {
          "internalType": "uint256",
          "name": "_poolId",
          "type": "uint256"
        }
      ],
      "name": "getOutcomeCounts",
      "outputs": [
        {
          "internalType": "uint256",
          "name": "yesCount",
          "type": "uint256"
        },
        {
          "internalType": "uint256",
          "name": "noCount",
          "type": "uint256"
        }
      ],
      "stateMutability": "view",
      "type": "function"
    },
    {
      "inputs": [
        {
          "internalType": "uint256",
          "name": "_poolId",
          "type": "uint256"
        },
        {
          "internalType": "uint8",
          "name": "_outcomeId",
          "type": "uint8"
        }
      ],
      "name": "getOutcomeTicketCount",
      "outputs": [
        {
          "internalType": "uint256",
          "name": "",
          "type": "uint256"
        }
      ],
      "stateMutability": "view",
      "type": "function"
    },
    {
      "inputs": [
        {
          "internalType": "uint256",
          "name": "_poolId",
          "type": "uint256"
        }
      ],
      "name": "getPoolDetails",
      "outputs": [
        {
          "internalType": "uint256",
          "name": "poolId",
          "type": "uint256"
        },
        {
          "internalType": "string",
          "name": "question",
          "type": "string"
        },
        {
          "internalType": "address",
          "name": "sponsor",
          "type": "address"
        },
        {
          "internalType": "uint256",
          "name": "sponsorDeposit",
          "type": "uint256"
        },
        {
          "internalType": "uint256",
          "name": "participantCount",
          "type": "uint256"
        },
        {
          "internalType": "uint256",
          "name": "totalPrincipal",
          "type": "uint256"
        },
        {
          "internalType": "uint256",
          "name": "bettingEndTime",
          "type": "uint256"
        },
        {
          "internalType": "bool",
          "name": "settled",
          "type": "bool"
        },
        {
          "internalType": "uint8",
          "name": "winningOutcomeId",
          "type": "uint8"
        },
        {
          "internalType": "uint256",
          "name": "totalYield",
          "type": "uint256"
        }
      ],
      "stateMutability": "view",
      "type": "function"
    },
    {
      "inputs": [
        {
          "internalType": "uint256",
          "name": "_poolId",
          "type": "uint256"
        },
        {
          "internalType": "address",
          "name": "_user",
          "type": "address"
        }
      ],
      "name": "getUserBet",
      "outputs": [
        {
          "internalType": "uint8",
          "name": "",
          "type": "uint8"
        }
      ],
      "stateMutability": "view",
      "type": "function"
    },
    {
      "inputs": [
        {
          "internalType": "uint256",
          "name": "_poolId",
          "type": "uint256"
        },
        {
          "internalType": "address",
          "name": "_user",
          "type": "address"
        }
      ],
      "name": "hasUserClaimed",
      "outputs": [
        {
          "internalType": "bool",
          "name": "",
          "type": "bool"
        }
      ],
      "stateMutability": "view",
      "type": "function"
    },
    {
      "inputs": [
        {
          "internalType": "uint256",
          "name": "_poolId",
          "type": "uint256"
        },
        {
          "internalType": "uint8",
          "name": "_outcomeId",
          "type": "uint8"
        }
      ],
      "name": "joinPool",
      "outputs": [],
      "stateMutability": "payable",
      "type": "function"
    },
    {
      "inputs": [],
      "name": "nextPoolId",
      "outputs": [
        {
          "internalType": "uint256",
          "name": "",
          "type": "uint256"
        }
      ],
      "stateMutability": "view",
      "type": "function"
    },
    {
      "inputs": [],
      "name": "owner",
      "outputs": [
        {
          "internalType": "address",
          "name": "",
          "type": "address"
        }
      ],
      "stateMutability": "view",
      "type": "function"
    },
    {
      "inputs": [
        {
          "internalType": "uint256",
          "name": "",
          "type": "uint256"
        }
      ],
      "name": "pools",
      "outputs": [
        {
          "internalType": "uint256",
          "name": "poolId",
          "type": "uint256"
        },
        {
          "internalType": "string",
          "name": "question",
          "type": "string"
        },
        {
          "internalType": "address",
          "name": "sponsor",
          "type": "address"
        },
        {
          "internalType": "uint256",
          "name": "sponsorDeposit",
          "type": "uint256"
        },
        {
          "internalType": "uint256",
          "name": "participantCount",
          "type": "uint256"
        },
        {
          "internalType": "uint256",
          "name": "totalPrincipal",
          "type": "uint256"
        },
        {
          "internalType": "uint256",
          "name": "bettingEndTime",
          "type": "uint256"
        },
        {
          "internalType": "bool",
          "name": "isSettled",
          "type": "bool"
        },
        {
          "internalType": "uint8",
          "name": "winningOutcomeId",
          "type": "uint8"
        },
        {
          "internalType": "uint256",
          "name": "totalYield",
          "type": "uint256"
        }
      ],
      "stateMutability": "view",
      "type": "function"
    },
    {
      "inputs": [],
      "name": "renounceOwnership",
      "outputs": [],
      "stateMutability": "nonpayable",
      "type": "function"
    },
    {
      "inputs": [
        {
          "internalType": "uint256",
          "name": "_poolId",
          "type": "uint256"
        },
        {
          "internalType": "uint8",
          "name": "_winningOutcomeId",
          "type": "uint8"
        },
        {
          "internalType": "uint256",
          "name": "_simulatedYield",
          "type": "uint256"
        }
      ],
      "name": "settlePool",
      "outputs": [],
      "stateMutability": "nonpayable",
      "type": "function"
    },
    {
      "inputs": [
        {
          "internalType": "address",
          "name": "newOwner",
          "type": "address"
        }
      ],
      "name": "transferOwnership",
      "outputs": [],
      "stateMutability": "nonpayable",
      "type": "function"
    },
    {
      "inputs": [],
      "name": "yieldProvider",
      "outputs": [
        {
          "internalType": "contract MockYieldProvider",
          "name": "",
          "type": "address"
        }
      ],
      "stateMutability": "view",
      "type": "function"
    }
  ],
  "transactionHash": "0xe6f74fc7b0c11e5f7ced4cecf913244ead359ca317e6edd2f84b01ba5d178dd3",
  "args": [
    "0x78E70E78634980Cefa3CCEBE28cAc6Ea6E548145"
  ],
  "numDeployments": 4,
  "solcInputHash": "83f7ba2e97b04a0466b92f7de4da914e",
  "bytecode": "0x60a06040526001805534801561001457600080fd5b506040516117e73803806117e7833981016040819052610033916100c4565b338061005957604051631e4fbdf760e01b81526000600482015260240160405180910390fd5b61006281610074565b506001600160a01b03166080526100f4565b600080546001600160a01b038381166001600160a01b0319831681178455604051919092169283917f8be0079c531659141344cd1fd0a4f28419497f9722a3daafe3b4186f6b6457e09190a35050565b6000602082840312156100d657600080fd5b81516001600160a01b03811681146100ed57600080fd5b9392505050565b6080516116bc61012b600039600081816102c9015281816108bc01528181610b9301528181611003015261109801526116bc6000f3fe6080604052600436106100fe5760003560e01c8063715018a611610095578063ac4afa3811610064578063ac4afa38146102eb578063b8764c3914610321578063b91fb66414610341578063c03fb87c14610361578063f2fde38b146103bd57600080fd5b8063715018a6146102545780638da5cb5b14610269578063a53773ef1461029b578063a82250a8146102b757600080fd5b806326fc66ab116100d157806326fc66ab14610193578063337317e6146101a657806334ef2c82146101b9578063413159cc1461021357600080fd5b806306d94eda1461010357806307c7a72d1461012b57806318e561311461015b5780631b55e33814610171575b600080fd5b34801561010f57600080fd5b50610118602881565b6040519081526020015b60405180910390f35b34801561013757600080fd5b5061014b61014636600461121a565b6103dd565b6040519015158152602001610122565b34801561016757600080fd5b5061011860015481565b34801561017d57600080fd5b5061019161018c366004611246565b61040d565b005b6101916101a1366004611275565b6107bd565b6101916101b436600461133b565b610982565b3480156101c557600080fd5b506101fe6101d4366004611246565b60009081526002602081815260408084206001855260060190915280832054918352909120549091565b60408051928352602083019190915201610122565b34801561021f57600080fd5b5061011861022e36600461133b565b600082815260026020908152604080832060ff8516845260060190915290205492915050565b34801561026057600080fd5b50610191610c45565b34801561027557600080fd5b506000546001600160a01b03165b6040516001600160a01b039091168152602001610122565b3480156102a757600080fd5b5061011867016345785d8a000081565b3480156102c357600080fd5b506102837f000000000000000000000000000000000000000000000000000000000000000081565b3480156102f757600080fd5b5061030b610306366004611246565b610c59565b6040516101229a999897969594939291906113a4565b34801561032d57600080fd5b5061030b61033c366004611246565b610d41565b34801561034d57600080fd5b5061019161035c36600461140e565b610e61565b34801561036d57600080fd5b506103ab61037c36600461121a565b60008281526002602090815260408083206001600160a01b038516845260070190915290205460ff1692915050565b60405160ff9091168152602001610122565b3480156103c957600080fd5b506101916103d8366004611443565b611143565b60008281526002602090815260408083206001600160a01b038516845260080190915290205460ff165b92915050565b6000818152600260205260409020600a0154819060ff166104755760405162461bcd60e51b815260206004820152601760248201527f506f6f6c206973206e6f742079657420736574746c656400000000000000000060448201526064015b60405180910390fd5b6000828152600260205260408120600b810154909190819060649061049c9060289061147b565b6104a69190611492565b905060008184600b01546104ba91906114b4565b60028501549091506001600160a01b031633036105f75733600090815260088501602052604090205460ff16156105335760405162461bcd60e51b815260206004820152601b60248201527f53706f6e736f722068617320616c726561647920636c61696d65640000000000604482015260640161046c565b81846003015461054391906114c7565b336000818152600887016020526040808220805460ff19166001179055519295509185905b60006040518083038185875af1925050503d80600081146105a5576040519150601f19603f3d011682016040523d82523d6000602084013e6105aa565b606091505b50509050806105f15760405162461bcd60e51b8152602060048201526013602482015272115512081d1c985b9cd9995c8819985a5b1959606a1b604482015260640161046c565b5061077e565b33600090815260078501602052604090205460ff16156107105733600090815260088501602052604090205460ff16156106735760405162461bcd60e51b815260206004820152601f60248201527f5061727469636970616e742068617320616c726561647920636c61696d656400604482015260640161046c565b600a84015433600090815260078601602052604090205467016345785d8a0000945060ff61010090920482169116036106e857600a840154610100900460ff16600090815260068501602052604090205480156106e65760006106d68284611492565b90506106e281866114c7565b9450505b505b336000818152600886016020526040808220805460ff19166001179055519091908590610568565b60405162461bcd60e51b815260206004820152603760248201527f41646472657373206973206e6569746865722073706f6e736f72206e6f72207060448201527f61727469636970616e7420696e207468697320706f6f6c000000000000000000606482015260840161046c565b604051838152339087907fa4eb50103b0591feb0bc913f479d92af5eb7ea33e8c397b49bab52ce6af26cb59060200160405180910390a3505050505050565b6001546000818152600260205260409020600a015460ff16156107f25760405162461bcd60e51b815260040161046c906114da565b348061084c5760405162461bcd60e51b8152602060048201526024808201527f53706f6e736f72206d757374206465706f73697420696e697469616c206361706044820152631a5d185b60e21b606482015260840161046c565b60018054600081815260026020526040902090815590810161086e868261159a565b506002810180546001600160a01b03191633179055600381018290556005810182905561089b84426114c7565b60098201556040516324f2c46360e01b8152306004820152602481018390527f00000000000000000000000000000000000000000000000000000000000000006001600160a01b0316906324f2c4639084906044016000604051808303818588803b15801561090957600080fd5b505af115801561091d573d6000803e3d6000fd5b5050505050336001600160a01b03166001547fb22862363d492c0c7b9bcbfe63bcfbc715494dafb3b41d198d4bfcefea8a7c038760405161095e919061165a565b60405180910390a3600180549060006109768361166d565b91905055505050505050565b600082815260026020526040902060090154829042106109e45760405162461bcd60e51b815260206004820152601860248201527f42657474696e6720706572696f642068617320656e6465640000000000000000604482015260640161046c565b6000818152600260205260409020600a015460ff1615610a165760405162461bcd60e51b815260040161046c906114da565b60008381526002602052604090203467016345785d8a000014610a7b5760405162461bcd60e51b815260206004820152601f60248201527f4d757374207061792065786163746c7920746865205449434b45545f46454500604482015260640161046c565b33600090815260078201602052604090205460ff1615610aec5760405162461bcd60e51b815260206004820152602660248201527f5573657220616c72656164792070617274696369706174656420696e207468696044820152651cc81c1bdbdb60d21b606482015260840161046c565b3360009081526007820160209081526040808320805460ff191660ff8816908117909155835260068401909152902054610b279060016114c7565b60ff841660009081526006830160205260409020556004810154610b4c9060016114c7565b60048201556005810154610b699067016345785d8a0000906114c7565b60058201556040516324f2c46360e01b815230600482015267016345785d8a0000602482018190527f00000000000000000000000000000000000000000000000000000000000000006001600160a01b0316916324f2c46391906044016000604051808303818588803b158015610bdf57600080fd5b505af1158015610bf3573d6000803e3d6000fd5b50506040805160ff8816815267016345785d8a000060208201523394508893507f59eca04e8d2a3cbc9bbd8fcfdda36278bea857fbf34bb881729b7671114e4e0192500160405180910390a350505050565b610c4d611181565b610c5760006111ae565b565b60026020526000908152604090208054600182018054919291610c7b90611511565b80601f0160208091040260200160405190810160405280929190818152602001828054610ca790611511565b8015610cf45780601f10610cc957610100808354040283529160200191610cf4565b820191906000526020600020905b815481529060010190602001808311610cd757829003601f168201915b5050505060028301546003840154600485015460058601546009870154600a880154600b9098015496976001600160a01b03909516969395509193909260ff80831692610100900416908a565b600081815260026020819052604082208054918101546003820154600483015460058401546009850154600a860154600b87015460018801805460609a8c9a8b9a8b9a8b9a8b9a8b9a8b9a8b9a969997986001600160a01b0390961696949593949293919260ff8083169361010090930416918990610dbf90611511565b80601f0160208091040260200160405190810160405280929190818152602001828054610deb90611511565b8015610e385780601f10610e0d57610100808354040283529160200191610e38565b820191906000526020600020905b815481529060010190602001808311610e1b57829003601f168201915b505050505098509a509a509a509a509a509a509a509a509a509a50509193959799509193959799565b6000838152600260208190526040909120015483906001600160a01b03163314610ecd5760405162461bcd60e51b815260206004820152601a60248201527f43616c6c6572206d757374206265207468652073706f6e736f72000000000000604482015260640161046c565b6000848152600260205260409020600a0154849060ff1615610f015760405162461bcd60e51b815260040161046c906114da565b60008581526002602052604090206009810154421015610f635760405162461bcd60e51b815260206004820152601e60248201527f42657474696e6720706572696f64206973206e6f74206f766572207965740000604482015260640161046c565b60008560ff16118015610f79575060038560ff16105b610fc55760405162461bcd60e51b815260206004820152601e60248201527f57696e6e696e67206f7574636f6d65206d7573742062652031206f7220320000604482015260640161046c565b600a81018054600161ffff1990911661010060ff89160217179055600b81018490556040516314e7d02f60e01b8152306004820152602481018590527f00000000000000000000000000000000000000000000000000000000000000006001600160a01b0316906314e7d02f90604401600060405180830381600087803b15801561104f57600080fd5b505af1158015611063573d6000803e3d6000fd5b50505050600084826005015461107991906114c7565b604051630af5fba560e11b8152306004820152602481018290529091507f00000000000000000000000000000000000000000000000000000000000000006001600160a01b0316906315ebf74a90604401600060405180830381600087803b1580156110e457600080fd5b505af11580156110f8573d6000803e3d6000fd5b50506040805160ff8a168152602081018990528a93507fb972376f8b9cffe93a819d775f0ca473e152f964b557c83a120de0766e19e89b92500160405180910390a250505050505050565b61114b611181565b6001600160a01b03811661117557604051631e4fbdf760e01b81526000600482015260240161046c565b61117e816111ae565b50565b6000546001600160a01b03163314610c575760405163118cdaa760e01b815233600482015260240161046c565b600080546001600160a01b038381166001600160a01b0319831681178455604051919092169283917f8be0079c531659141344cd1fd0a4f28419497f9722a3daafe3b4186f6b6457e09190a35050565b80356001600160a01b038116811461121557600080fd5b919050565b6000806040838503121561122d57600080fd5b8235915061123d602084016111fe565b90509250929050565b60006020828403121561125857600080fd5b5035919050565b634e487b7160e01b600052604160045260246000fd5b6000806040838503121561128857600080fd5b823567ffffffffffffffff808211156112a057600080fd5b818501915085601f8301126112b457600080fd5b8135818111156112c6576112c661125f565b604051601f8201601f19908116603f011681019083821181831017156112ee576112ee61125f565b8160405282815288602084870101111561130757600080fd5b826020860160208301376000602093820184015298969091013596505050505050565b803560ff8116811461121557600080fd5b6000806040838503121561134e57600080fd5b8235915061123d6020840161132a565b6000815180845260005b8181101561138457602081850181015186830182015201611368565b506000602082860101526020601f19601f83011685010191505092915050565b60006101408c83528060208401526113be8184018d61135e565b6001600160a01b039b909b16604084015250506060810197909752608087019590955260a086019390935260c0850191909152151560e084015260ff166101008301526101209091015292915050565b60008060006060848603121561142357600080fd5b833592506114336020850161132a565b9150604084013590509250925092565b60006020828403121561145557600080fd5b61145e826111fe565b9392505050565b634e487b7160e01b600052601160045260246000fd5b808202811582820484141761040757610407611465565b6000826114af57634e487b7160e01b600052601260045260246000fd5b500490565b8181038181111561040757610407611465565b8082018082111561040757610407611465565b60208082526017908201527f506f6f6c20697320616c726561647920736574746c6564000000000000000000604082015260600190565b600181811c9082168061152557607f821691505b60208210810361154557634e487b7160e01b600052602260045260246000fd5b50919050565b601f82111561159557600081815260208120601f850160051c810160208610156115725750805b601f850160051c820191505b818110156115915782815560010161157e565b5050505b505050565b815167ffffffffffffffff8111156115b4576115b461125f565b6115c8816115c28454611511565b8461154b565b602080601f8311600181146115fd57600084156115e55750858301515b600019600386901b1c1916600185901b178555611591565b600085815260208120601f198616915b8281101561162c5788860151825594840194600190910190840161160d565b508582101561164a5787850151600019600388901b60f8161c191681555b5050505050600190811b01905550565b60208152600061145e602083018461135e565b60006001820161167f5761167f611465565b506001019056fea2646970667358221220342a7ec1144f730ad8461e9ac0fb9ec787e78e4ce787e0055ab4a35a7a459bf964736f6c63430008140033",
  "devdoc": {
    "details": "A prediction market where user principal is returned regardless of the outcome. The prize pool is funded entirely by yield generated from DeFi lending.",
    "errors": {
      "OwnableInvalidOwner(address)": [
        {
          "details": "The owner is not a valid owner account. (eg. `address(0)`)"
        }
      ],
      "OwnableUnauthorizedAccount(address)": [
        {
          "details": "The caller account is not authorized to perform an operation."
        }
      ]
    },
    "kind": "dev",
    "methods": {
      "getOutcomeCounts(uint256)": {
        "details": "Get outcome counts for both outcomes (YES=1, NO=2)"
      },
      "getOutcomeTicketCount(uint256,uint8)": {
        "details": "Get outcome ticket count for a pool"
      },
      "getPoolDetails(uint256)": {
        "details": "Returns pool details. Note: This is a simplified version. For full details, you may need separate getter functions for mappings."
      },
      "getUserBet(uint256,address)": {
        "details": "Get user's bet for a specific pool"
      },
      "hasUserClaimed(uint256,address)": {
        "details": "Check if user has claimed for a pool"
      },
      "owner()": {
        "details": "Returns the address of the current owner."
      },
      "renounceOwnership()": {
        "details": "Leaves the contract without owner. It will not be possible to call `onlyOwner` functions. Can only be called by the current owner. NOTE: Renouncing ownership will leave the contract without an owner, thereby disabling any functionality that is only available to the owner."
      },
      "transferOwnership(address)": {
        "details": "Transfers ownership of the contract to a new account (`newOwner`). Can only be called by the current owner."
      }
    },
    "title": "NoLossPredictionPool",
    "version": 1
  },
  "userdoc": {
    "kind": "user",
    "methods": {},
    "version": 1
  },
  "storageLayout": {
    "storage": [
      {
        "astId": 8,
        "contract": "contracts/NoLossPredictionPool.sol:NoLossPredictionPool",
        "label": "_owner",
        "offset": 0,
        "slot": "0",
        "type": "t_address"
      },
      {
        "astId": 413,
        "contract": "contracts/NoLossPredictionPool.sol:NoLossPredictionPool",
        "label": "nextPoolId",
        "offset": 0,
        "slot": "1",
        "type": "t_uint256"
      },
      {
        "astId": 418,
        "contract": "contracts/NoLossPredictionPool.sol:NoLossPredictionPool",
        "label": "pools",
        "offset": 0,
        "slot": "2",
        "type": "t_mapping(t_uint256,t_struct(Pool)410_storage)"
      }
    ],
    "types": {
      "t_address": {
        "encoding": "inplace",
        "label": "address",
        "numberOfBytes": "20"
      },
      "t_bool": {
        "encoding": "inplace",
        "label": "bool",
        "numberOfBytes": "1"
      },
      "t_mapping(t_address,t_bool)": {
        "encoding": "mapping",
        "key": "t_address",
        "label": "mapping(address => bool)",
        "numberOfBytes": "32",
        "value": "t_bool"
      },
      "t_mapping(t_address,t_uint8)": {
        "encoding": "mapping",
        "key": "t_address",
        "label": "mapping(address => uint8)",
        "numberOfBytes": "32",
        "value": "t_uint8"
      },
      "t_mapping(t_uint256,t_struct(Pool)410_storage)": {
        "encoding": "mapping",
        "key": "t_uint256",
        "label": "mapping(uint256 => struct NoLossPredictionPool.Pool)",
        "numberOfBytes": "32",
        "value": "t_struct(Pool)410_storage"
      },
      "t_mapping(t_uint8,t_uint256)": {
        "encoding": "mapping",
        "key": "t_uint8",
        "label": "mapping(uint8 => uint256)",
        "numberOfBytes": "32",
        "value": "t_uint256"
      },
      "t_string_storage": {
        "encoding": "bytes",
        "label": "string",
        "numberOfBytes": "32"
      },
      "t_struct(Pool)410_storage": {
        "encoding": "inplace",
        "label": "struct NoLossPredictionPool.Pool",
        "members": [
          {
            "astId": 379,
            "contract": "contracts/NoLossPredictionPool.sol:NoLossPredictionPool",
            "label": "poolId",
            "offset": 0,
            "slot": "0",
            "type": "t_uint256"
          },
          {
            "astId": 381,
            "contract": "contracts/NoLossPredictionPool.sol:NoLossPredictionPool",
            "label": "question",
            "offset": 0,
            "slot": "1",
            "type": "t_string_storage"
          },
          {
            "astId": 383,
            "contract": "contracts/NoLossPredictionPool.sol:NoLossPredictionPool",
            "label": "sponsor",
            "offset": 0,
            "slot": "2",
            "type": "t_address"
          },
          {
            "astId": 385,
            "contract": "contracts/NoLossPredictionPool.sol:NoLossPredictionPool",
            "label": "sponsorDeposit",
            "offset": 0,
            "slot": "3",
            "type": "t_uint256"
          },
          {
            "astId": 387,
            "contract": "contracts/NoLossPredictionPool.sol:NoLossPredictionPool",
            "label": "participantCount",
            "offset": 0,
            "slot": "4",
            "type": "t_uint256"
          },
          {
            "astId": 389,
            "contract": "contracts/NoLossPredictionPool.sol:NoLossPredictionPool",
            "label": "totalPrincipal",
            "offset": 0,
            "slot": "5",
            "type": "t_uint256"
          },
          {
            "astId": 393,
            "contract": "contracts/NoLossPredictionPool.sol:NoLossPredictionPool",
            "label": "outcomeTicketCount",
            "offset": 0,
            "slot": "6",
            "type": "t_mapping(t_uint8,t_uint256)"
          },
          {
            "astId": 397,
            "contract": "contracts/NoLossPredictionPool.sol:NoLossPredictionPool",
            "label": "userBet",
            "offset": 0,
            "slot": "7",
            "type": "t_mapping(t_address,t_uint8)"
          },
          {
            "astId": 401,
            "contract": "contracts/NoLossPredictionPool.sol:NoLossPredictionPool",
            "label": "hasClaimed",
            "offset": 0,
            "slot": "8",
            "type": "t_mapping(t_address,t_bool)"
          },
          {
            "astId": 403,
            "contract": "contracts/NoLossPredictionPool.sol:NoLossPredictionPool",
            "label": "bettingEndTime",
            "offset": 0,
            "slot": "9",
            "type": "t_uint256"
          },
          {
            "astId": 405,
            "contract": "contracts/NoLossPredictionPool.sol:NoLossPredictionPool",
            "label": "isSettled",
            "offset": 0,
            "slot": "10",
            "type": "t_bool"
          },
          {
            "astId": 407,
            "contract": "contracts/NoLossPredictionPool.sol:NoLossPredictionPool",
            "label": "winningOutcomeId",
            "offset": 1,
            "slot": "10",
            "type": "t_uint8"
          },
          {
            "astId": 409,
            "contract": "contracts/NoLossPredictionPool.sol:NoLossPredictionPool",
            "label": "totalYield",
            "offset": 0,
            "slot": "11",
            "type": "t_uint256"
          }
        ],
        "numberOfBytes": "384"
      },
      "t_uint256": {
        "encoding": "inplace",
        "label": "uint256",
        "numberOfBytes": "32"
      },
      "t_uint8": {
        "encoding": "inplace",
        "label": "uint8",
        "numberOfBytes": "1"
      }
    }
  }
}